{"abi":[{"type":"constructor","inputs":[],"stateMutability":"nonpayable"},{"type":"function","name":"approve","inputs":[{"name":"to","type":"address","internalType":"address"},{"name":"tokenId","type":"uint256","internalType":"uint256"}],"outputs":[],"stateMutability":"nonpayable"},{"type":"function","name":"balanceOf","inputs":[{"name":"owner","type":"address","internalType":"address"}],"outputs":[{"name":"","type":"uint256","internalType":"uint256"}],"stateMutability":"view"},{"type":"function","name":"getApproved","inputs":[{"name":"tokenId","type":"uint256","internalType":"uint256"}],"outputs":[{"name":"","type":"address","internalType":"address"}],"stateMutability":"view"},{"type":"function","name":"isApprovedForAll","inputs":[{"name":"owner","type":"address","internalType":"address"},{"name":"operator","type":"address","internalType":"address"}],"outputs":[{"name":"","type":"bool","internalType":"bool"}],"stateMutability":"view"},{"type":"function","name":"mint","inputs":[{"name":"to","type":"address","internalType":"address"}],"outputs":[{"name":"","type":"uint256","internalType":"uint256"}],"stateMutability":"nonpayable"},{"type":"function","name":"name","inputs":[],"outputs":[{"name":"","type":"string","internalType":"string"}],"stateMutability":"view"},{"type":"function","name":"nextId","inputs":[],"outputs":[{"name":"","type":"uint256","internalType":"uint256"}],"stateMutability":"view"},{"type":"function","name":"ownerOf","inputs":[{"name":"tokenId","type":"uint256","internalType":"uint256"}],"outputs":[{"name":"","type":"address","internalType":"address"}],"stateMutability":"view"},{"type":"function","name":"safeTransferFrom","inputs":[{"name":"from","type":"address","internalType":"address"},{"name":"to","type":"address","internalType":"address"},{"name":"tokenId","type":"uint256","internalType":"uint256"}],"outputs":[],"stateMutability":"nonpayable"},{"type":"function","name":"safeTransferFrom","inputs":[{"name":"from","type":"address","internalType":"address"},{"name":"to","type":"address","internalType":"address"},{"name":"tokenId","type":"uint256","internalType":"uint256"},{"name":"data","type":"bytes","internalType":"bytes"}],"outputs":[],"stateMutability":"nonpayable"},{"type":"function","name":"setApprovalForAll","inputs":[{"name":"operator","type":"address","internalType":"address"},{"name":"approved","type":"bool","internalType":"bool"}],"outputs":[],"stateMutability":"nonpayable"},{"type":"function","name":"supportsInterface","inputs":[{"name":"interfaceId","type":"bytes4","internalType":"bytes4"}],"outputs":[{"name":"","type":"bool","internalType":"bool"}],"stateMutability":"view"},{"type":"function","name":"symbol","inputs":[],"outputs":[{"name":"","type":"string","internalType":"string"}],"stateMutability":"view"},{"type":"function","name":"tokenURI","inputs":[{"name":"tokenId","type":"uint256","internalType":"uint256"}],"outputs":[{"name":"","type":"string","internalType":"string"}],"stateMutability":"view"},{"type":"function","name":"transferFrom","inputs":[{"name":"from","type":"address","internalType":"address"},{"name":"to","type":"address","internalType":"address"},{"name":"tokenId","type":"uint256","internalType":"uint256"}],"outputs":[],"stateMutability":"nonpayable"},{"type":"event","name":"Approval","inputs":[{"name":"owner","type":"address","indexed":true,"internalType":"address"},{"name":"approved","type":"address","indexed":true,"internalType":"address"},{"name":"tokenId","type":"uint256","indexed":true,"internalType":"uint256"}],"anonymous":false},{"type":"event","name":"ApprovalForAll","inputs":[{"name":"owner","type":"address","indexed":true,"internalType":"address"},{"name":"operator","type":"address","indexed":true,"internalType":"address"},{"name":"approved","type":"bool","indexed":false,"internalType":"bool"}],"anonymous":false},{"type":"event","name":"Transfer","inputs":[{"name":"from","type":"address","indexed":true,"internalType":"address"},{"name":"to","type":"address","indexed":true,"internalType":"address"},{"name":"tokenId","type":"uint256","indexed":true,"internalType":"uint256"}],"anonymous":false},{"type":"error","name":"ERC721IncorrectOwner","inputs":[{"name":"sender","type":"address","internalType":"address"},{"name":"tokenId","type":"uint256","internalType":"uint256"},{"name":"owner","type":"address","internalType":"address"}]},{"type":"error","name":"ERC721InsufficientApproval","inputs":[{"name":"operator","type":"address","internalType":"address"},{"name":"tokenId","type":"uint256","internalType":"uint256"}]},{"type":"error","name":"ERC721InvalidApprover","inputs":[{"name":"approver","type":"address","internalType":"address"}]},{"type":"error","name":"ERC721InvalidOperator","inputs":[{"name":"operator","type":"address","internalType":"address"}]},{"type":"error","name":"ERC721InvalidOwner","inputs":[{"name":"owner","type":"address","internalType":"address"}]},{"type":"error","name":"ERC721InvalidReceiver","inputs":[{"name":"receiver","type":"address","internalType":"address"}]},{"type":"error","name":"ERC721InvalidSender","inputs":[{"name":"sender","type":"address","internalType":"address"}]},{"type":"error","name":"ERC721NonexistentToken","inputs":[{"name":"tokenId","type":"uint256","internalType":"uint256"}]}],"bytecode":{"object":"0x608060405234801561000f575f5ffd5b5060405180604001604052806007815260200166135bd8dad3919560ca1b815250604051806040016040528060048152602001631353919560e21b815250815f908161005b9190610108565b5060016100688282610108565b5050506101c2565b634e487b7160e01b5f52604160045260245ffd5b600181811c9082168061009857607f821691505b6020821081036100b657634e487b7160e01b5f52602260045260245ffd5b50919050565b601f82111561010357805f5260205f20601f840160051c810160208510156100e15750805b601f840160051c820191505b81811015610100575f81556001016100ed565b50505b505050565b81516001600160401b0381111561012157610121610070565b6101358161012f8454610084565b846100bc565b6020601f821160018114610167575f83156101505750848201515b5f19600385901b1c1916600184901b178455610100565b5f84815260208120601f198516915b828110156101965787850151825560209485019460019092019101610176565b50848210156101b357868401515f19600387901b60f8161c191681555b50505050600190811b01905550565b610f62806101cf5f395ff3fe608060405234801561000f575f5ffd5b50600436106100f0575f3560e01c80636352211e11610093578063a22cb46511610063578063a22cb465146101ef578063b88d4fde14610202578063c87b56dd14610215578063e985e9c514610228575f5ffd5b80636352211e146101ae5780636a627842146101c157806370a08231146101d457806395d89b41146101e7575f5ffd5b8063095ea7b3116100ce578063095ea7b31461015c57806323b872dd1461017157806342842e0e1461018457806361b8ce8c14610197575f5ffd5b806301ffc9a7146100f457806306fdde031461011c578063081812fc14610131575b5f5ffd5b610107610102366004610beb565b61023b565b60405190151581526020015b60405180910390f35b61012461028c565b6040516101139190610c34565b61014461013f366004610c46565b61031b565b6040516001600160a01b039091168152602001610113565b61016f61016a366004610c78565b610342565b005b61016f61017f366004610ca0565b610351565b61016f610192366004610ca0565b6103df565b6101a060065481565b604051908152602001610113565b6101446101bc366004610c46565b6103fe565b6101a06101cf366004610cda565b610408565b6101a06101e2366004610cda565b61042d565b610124610472565b61016f6101fd366004610cf3565b610481565b61016f610210366004610d40565b61048c565b610124610223366004610c46565b6104a4565b610107610236366004610e1d565b610515565b5f6001600160e01b031982166380ac58cd60e01b148061026b57506001600160e01b03198216635b5e139f60e01b145b8061028657506301ffc9a760e01b6001600160e01b03198316145b92915050565b60605f805461029a90610e4e565b80601f01602080910402602001604051908101604052809291908181526020018280546102c690610e4e565b80156103115780601f106102e857610100808354040283529160200191610311565b820191905f5260205f20905b8154815290600101906020018083116102f457829003601f168201915b5050505050905090565b5f61032582610542565b505f828152600460205260409020546001600160a01b0316610286565b61034d82823361057a565b5050565b6001600160a01b03821661037f57604051633250574960e11b81525f60048201526024015b60405180910390fd5b5f61038b838333610587565b9050836001600160a01b0316816001600160a01b0316146103d9576040516364283d7b60e01b81526001600160a01b0380861660048301526024820184905282166044820152606401610376565b50505050565b6103f983838360405180602001604052805f81525061048c565b505050565b5f61028682610542565b5f6104258260065f815461041b90610e86565b9182905550610679565b505060065490565b5f6001600160a01b038216610457576040516322718ad960e21b81525f6004820152602401610376565b506001600160a01b03165f9081526003602052604090205490565b60606001805461029a90610e4e565b61034d3383836106da565b610497848484610351565b6103d93385858585610778565b60606104af82610542565b505f6104c560408051602081019091525f815290565b90505f8151116104e35760405180602001604052805f81525061050e565b806104ed846108a0565b6040516020016104fe929190610ec1565b6040516020818303038152906040525b9392505050565b6001600160a01b039182165f90815260056020908152604080832093909416825291909152205460ff1690565b5f818152600260205260408120546001600160a01b03168061028657604051637e27328960e01b815260048101849052602401610376565b6103f98383836001610930565b5f828152600260205260408120546001600160a01b03908116908316156105b3576105b3818486610a34565b6001600160a01b038116156105ed576105ce5f855f5f610930565b6001600160a01b0381165f90815260036020526040902080545f190190555b6001600160a01b0385161561061b576001600160a01b0385165f908152600360205260409020805460010190555b5f8481526002602052604080822080546001600160a01b0319166001600160a01b0389811691821790925591518793918516917fddf252ad1be2c89b69c2b068fc378daa952ba7f163c4a11628f55a4df523b3ef91a4949350505050565b6001600160a01b0382166106a257604051633250574960e11b81525f6004820152602401610376565b5f6106ae83835f610587565b90506001600160a01b038116156103f9576040516339e3563760e11b81525f6004820152602401610376565b6001600160a01b03821661070c57604051630b61174360e31b81526001600160a01b0383166004820152602401610376565b6001600160a01b038381165f81815260056020908152604080832094871680845294825291829020805460ff191686151590811790915591519182527f17307eab39ab6107e8899845ad3d59bd9653f200f220920489ca2b5937696c31910160405180910390a3505050565b6001600160a01b0383163b1561089957604051630a85bd0160e11b81526001600160a01b0384169063150b7a02906107ba908890889087908790600401610ed5565b6020604051808303815f875af19250505080156107f4575060408051601f3d908101601f191682019092526107f191810190610f11565b60015b61085b573d808015610821576040519150601f19603f3d011682016040523d82523d5f602084013e610826565b606091505b5080515f0361085357604051633250574960e11b81526001600160a01b0385166004820152602401610376565b805181602001fd5b6001600160e01b03198116630a85bd0160e11b1461089757604051633250574960e11b81526001600160a01b0385166004820152602401610376565b505b5050505050565b60605f6108ac83610a98565b60010190505f8167ffffffffffffffff8111156108cb576108cb610d2c565b6040519080825280601f01601f1916602001820160405280156108f5576020820181803683370190505b5090508181016020015b5f19016f181899199a1a9b1b9c1cb0b131b232b360811b600a86061a8153600a85049450846108ff57509392505050565b808061094457506001600160a01b03821615155b15610a05575f61095384610542565b90506001600160a01b0383161580159061097f5750826001600160a01b0316816001600160a01b031614155b801561099257506109908184610515565b155b156109bb5760405163a9fbf51f60e01b81526001600160a01b0384166004820152602401610376565b8115610a035783856001600160a01b0316826001600160a01b03167f8c5be1e5ebec7d5bd14f71427d1e84f3dd0314c0f7b2291e5b200ac8c7c3b92560405160405180910390a45b505b50505f90815260046020526040902080546001600160a01b0319166001600160a01b0392909216919091179055565b610a3f838383610b6f565b6103f9576001600160a01b038316610a6d57604051637e27328960e01b815260048101829052602401610376565b60405163177e802f60e01b81526001600160a01b038316600482015260248101829052604401610376565b5f8072184f03e93ff9f4daa797ed6e38ed64bf6a1f0160401b8310610ad65772184f03e93ff9f4daa797ed6e38ed64bf6a1f0160401b830492506040015b6d04ee2d6d415b85acef81000000008310610b02576d04ee2d6d415b85acef8100000000830492506020015b662386f26fc100008310610b2057662386f26fc10000830492506010015b6305f5e1008310610b38576305f5e100830492506008015b6127108310610b4c57612710830492506004015b60648310610b5e576064830492506002015b600a83106102865760010192915050565b5f6001600160a01b03831615801590610bcb5750826001600160a01b0316846001600160a01b03161480610ba85750610ba88484610515565b80610bcb57505f828152600460205260409020546001600160a01b038481169116145b949350505050565b6001600160e01b031981168114610be8575f5ffd5b50565b5f60208284031215610bfb575f5ffd5b813561050e81610bd3565b5f81518084528060208401602086015e5f602082860101526020601f19601f83011685010191505092915050565b602081525f61050e6020830184610c06565b5f60208284031215610c56575f5ffd5b5035919050565b80356001600160a01b0381168114610c73575f5ffd5b919050565b5f5f60408385031215610c89575f5ffd5b610c9283610c5d565b946020939093013593505050565b5f5f5f60608486031215610cb2575f5ffd5b610cbb84610c5d565b9250610cc960208501610c5d565b929592945050506040919091013590565b5f60208284031215610cea575f5ffd5b61050e82610c5d565b5f5f60408385031215610d04575f5ffd5b610d0d83610c5d565b915060208301358015158114610d21575f5ffd5b809150509250929050565b634e487b7160e01b5f52604160045260245ffd5b5f5f5f5f60808587031215610d53575f5ffd5b610d5c85610c5d565b9350610d6a60208601610c5d565b925060408501359150606085013567ffffffffffffffff811115610d8c575f5ffd5b8501601f81018713610d9c575f5ffd5b803567ffffffffffffffff811115610db657610db6610d2c565b604051601f8201601f19908116603f0116810167ffffffffffffffff81118282101715610de557610de5610d2c565b604052818152828201602001891015610dfc575f5ffd5b816020840160208301375f6020838301015280935050505092959194509250565b5f5f60408385031215610e2e575f5ffd5b610e3783610c5d565b9150610e4560208401610c5d565b90509250929050565b600181811c90821680610e6257607f821691505b602082108103610e8057634e487b7160e01b5f52602260045260245ffd5b50919050565b5f60018201610ea357634e487b7160e01b5f52601160045260245ffd5b5060010190565b5f81518060208401855e5f93019283525090919050565b5f610bcb610ecf8386610eaa565b84610eaa565b6001600160a01b03858116825284166020820152604081018390526080606082018190525f90610f0790830184610c06565b9695505050505050565b5f60208284031215610f21575f5ffd5b815161050e81610bd356fea2646970667358221220844719e978228c2eea2155f8b88e54b6bcde8067461fbc6542f55a5a6c0a2fee64736f6c634300081e0033","linkReferences":{}},"methodIdentifiers":{"approve(address,uint256)":"095ea7b3","balanceOf(address)":"70a08231","getApproved(uint256)":"081812fc","isApprovedForAll(address,address)":"e985e9c5","mint(address)":"6a627842","name()":"06fdde03","nextId()":"61b8ce8c","ownerOf(uint256)":"6352211e","safeTransferFrom(address,address,uint256)":"42842e0e","safeTransferFrom(address,address,uint256,bytes)":"b88d4fde","setApprovalForAll(address,bool)":"a22cb465","supportsInterface(bytes4)":"01ffc9a7","symbol()":"95d89b41","tokenURI(uint256)":"c87b56dd","transferFrom(address,address,uint256)":"23b872dd"},"id":34}