{"abi":[{"type":"constructor","inputs":[{"name":"_nft","type":"address","internalType":"address"}],"stateMutability":"nonpayable"},{"type":"function","name":"RATE","inputs":[],"outputs":[{"name":"","type":"uint256","internalType":"uint256"}],"stateMutability":"view"},{"type":"function","name":"broBalance","inputs":[{"name":"","type":"address","internalType":"address"}],"outputs":[{"name":"","type":"uint256","internalType":"uint256"}],"stateMutability":"view"},{"type":"function","name":"mint","inputs":[{"name":"tokenId","type":"uint256","internalType":"uint256"}],"outputs":[],"stateMutability":"nonpayable"},{"type":"function","name":"nft","inputs":[],"outputs":[{"name":"","type":"address","internalType":"contract MockNFT"}],"stateMutability":"view"},{"type":"function","name":"onERC721Received","inputs":[{"name":"","type":"address","internalType":"address"},{"name":"","type":"address","internalType":"address"},{"name":"","type":"uint256","internalType":"uint256"},{"name":"","type":"bytes","internalType":"bytes"}],"outputs":[{"name":"","type":"bytes4","internalType":"bytes4"}],"stateMutability":"nonpayable"}],"bytecode":{"object":"0x6080604052348015600e575f5ffd5b5060405161043b38038061043b833981016040819052602b91604e565b5f80546001600160a01b0319166001600160a01b03929092169190911790556079565b5f60208284031215605d575f5ffd5b81516001600160a01b03811681146072575f5ffd5b9392505050565b6103b5806100865f395ff3fe608060405234801561000f575f5ffd5b5060043610610055575f3560e01c80630ec41f0f14610059578063150b7a021461008b57806347ccca02146100b7578063664e9704146100e1578063a0712d68146100eb575b5f5ffd5b610078610067366004610278565b60016020525f908152604090205481565b6040519081526020015b60405180910390f35b61009e610099366004610298565b610100565b6040516001600160e01b03199091168152602001610082565b5f546100c9906001600160a01b031681565b6040516001600160a01b039091168152602001610082565b610078620f424081565b6100fe6100f936600461032d565b6101aa565b005b6002545f906001600160a01b0316156101985760025460408051600481526024810182526020810180516001600160e01b0316633da63fe960e11b17905290515f926001600160a01b03169161015591610344565b5f604051808303815f865af19150503d805f811461018e576040519150601f19603f3d011682016040523d82523d5f602084013e610193565b606091505b505050505b50630a85bd0160e11b95945050505050565b600280546001600160a01b031916339081179091555f54604051632142170760e11b81526004810192909252306024830152604482018390526001600160a01b0316906342842e0e906064015f604051808303815f87803b15801561020d575f5ffd5b505af115801561021f573d5f5f3e3d5ffd5b5050335f9081526001602052604081208054620f4240945090925061024590849061035a565b9091555050600280546001600160a01b031916905550565b80356001600160a01b0381168114610273575f5ffd5b919050565b5f60208284031215610288575f5ffd5b6102918261025d565b9392505050565b5f5f5f5f5f608086880312156102ac575f5ffd5b6102b58661025d565b94506102c36020870161025d565b935060408601359250606086013567ffffffffffffffff8111156102e5575f5ffd5b8601601f810188136102f5575f5ffd5b803567ffffffffffffffff81111561030b575f5ffd5b88602082840101111561031c575f5ffd5b959894975092955050506020019190565b5f6020828403121561033d575f5ffd5b5035919050565b5f82518060208501845e5f920191825250919050565b8082018082111561037957634e487b7160e01b5f52601160045260245ffd5b9291505056fea26469706673582212201256a0a1380f4906168db259bd6d1b968220ae78d27ce536d91846da24042f7364736f6c634300081e0033","linkReferences":{}},"methodIdentifiers":{"RATE()":"664e9704","broBalance(address)":"0ec41f0f","mint(uint256)":"a0712d68","nft()":"47ccca02","onERC721Received(address,address,uint256,bytes)":"150b7a02"},"id":34}