{"abi":[{"type":"function","name":"addFinding","inputs":[{"name":"title","type":"string","internalType":"string"},{"name":"description","type":"string","internalType":"string"},{"name":"vulnValue","type":"uint256","internalType":"uint256"},{"name":"fixedValue","type":"uint256","internalType":"uint256"},{"name":"severity","type":"uint8","internalType":"enum AuditReport.Severity"},{"name":"proof","type":"string","internalType":"string"}],"outputs":[],"stateMutability":"nonpayable"},{"type":"function","name":"count","inputs":[],"outputs":[{"name":"","type":"uint256","internalType":"uint256"}],"stateMutability":"view"},{"type":"function","name":"findings","inputs":[{"name":"","type":"uint256","internalType":"uint256"}],"outputs":[{"name":"title","type":"string","internalType":"string"},{"name":"description","type":"string","internalType":"string"},{"name":"vulnValue","type":"uint256","internalType":"uint256"},{"name":"fixedValue","type":"uint256","internalType":"uint256"},{"name":"severity","type":"uint8","internalType":"enum AuditReport.Severity"},{"name":"proof","type":"string","internalType":"string"}],"stateMutability":"view"}],"bytecode":{"object":"0x6080604052348015600e575f5ffd5b506106e28061001c5f395ff3fe608060405234801561000f575f5ffd5b506004361061003f575f3560e01c806306661abd14610043578063e47558d314610058578063e998692e1461007d575b5f5ffd5b5f546040519081526020015b60405180910390f35b61006b61006636600461034d565b610092565b60405161004f969594939291906103a6565b61009061008b3660046104b8565b610273565b005b5f81815481106100a0575f80fd5b905f5260205f2090600602015f91509050805f0180546100bf9061056d565b80601f01602080910402602001604051908101604052809291908181526020018280546100eb9061056d565b80156101365780601f1061010d57610100808354040283529160200191610136565b820191905f5260205f20905b81548152906001019060200180831161011957829003601f168201915b50505050509080600101805461014b9061056d565b80601f01602080910402602001604051908101604052809291908181526020018280546101779061056d565b80156101c25780601f10610199576101008083540402835291602001916101c2565b820191905f5260205f20905b8154815290600101906020018083116101a557829003601f168201915b5050506002840154600385015460048601546005870180549697939692955060ff9091169350906101f29061056d565b80601f016020809104026020016040519081016040528092919081815260200182805461021e9061056d565b80156102695780601f1061024057610100808354040283529160200191610269565b820191905f5260205f20905b81548152906001019060200180831161024c57829003601f168201915b5050505050905086565b5f6040518060c001604052808881526020018781526020018681526020018581526020018460038111156102a9576102a9610392565b8152602090810184905282546001810184555f938452922081519192600602019081906102d690826105f1565b50602082015160018201906102eb90826105f1565b5060408201518160020155606082015181600301556080820151816004015f6101000a81548160ff0219169083600381111561032957610329610392565b021790555060a0820151600582019061034290826105f1565b505050505050505050565b5f6020828403121561035d575f5ffd5b5035919050565b5f81518084528060208401602086015e5f602082860101526020601f19601f83011685010191505092915050565b634e487b7160e01b5f52602160045260245ffd5b60c081525f6103b860c0830189610364565b82810360208401526103ca8189610364565b9050866040840152856060840152600485106103f457634e487b7160e01b5f52602160045260245ffd5b84608084015282810360a084015261040c8185610364565b9998505050505050505050565b634e487b7160e01b5f52604160045260245ffd5b5f82601f83011261043c575f5ffd5b813567ffffffffffffffff81111561045657610456610419565b604051601f8201601f19908116603f0116810167ffffffffffffffff8111828210171561048557610485610419565b60405281815283820160200185101561049c575f5ffd5b816020850160208301375f918101602001919091529392505050565b5f5f5f5f5f5f60c087890312156104cd575f5ffd5b863567ffffffffffffffff8111156104e3575f5ffd5b6104ef89828a0161042d565b965050602087013567ffffffffffffffff81111561050b575f5ffd5b61051789828a0161042d565b9550506040870135935060608701359250608087013560048110610539575f5ffd5b915060a087013567ffffffffffffffff811115610554575f5ffd5b61056089828a0161042d565b9150509295509295509295565b600181811c9082168061058157607f821691505b60208210810361059f57634e487b7160e01b5f52602260045260245ffd5b50919050565b601f8211156105ec57805f5260205f20601f840160051c810160208510156105ca5750805b601f840160051c820191505b818110156105e9575f81556001016105d6565b50505b505050565b815167ffffffffffffffff81111561060b5761060b610419565b61061f81610619845461056d565b846105a5565b6020601f821160018114610651575f831561063a5750848201515b5f19600385901b1c1916600184901b1784556105e9565b5f84815260208120601f198516915b828110156106805787850151825560209485019460019092019101610660565b508482101561069d57868401515f19600387901b60f8161c191681555b50505050600190811b0190555056fea2646970667358221220ccc835d21e1299eec4fa945fb1c021c9c77f7bd7e2c3501296f4b4f02fc15b8764736f6c634300081e0033","linkReferences":{}},"methodIdentifiers":{"addFinding(string,string,uint256,uint256,uint8,string)":"e998692e","count()":"06661abd","findings(uint256)":"e47558d3"},"id":35}